:03000000020541B5
:0C054100787FE4F6D8FD75815102058832
:100760002D2E2D2E202D2D2E2D2F2D2E2D2E202DCC
:100770002D2E2D2F2D2E2E202E2F2E202E2D2D20C6
:100780002D2E2E2E2E202D2D202E2D2E2E2F2E20B6
:100790002E2D2D202D2E2E2E2E202D2D202E2D2EA9
:1007A0002E2F2E202E2D2D202D2E2E2E2E202D2D97
:1007B000202E2D2E2E2F2D2E2D002D202D2E202DB6
:1007C0002E2E2D2F2D2D2E2D202E2E2E202D2D2D6B
:0D07D0002F2D2D2E2E2E202E2E2E2D2D0005
:1006DE00042400000000013D00011800022B000060
:1006EE00013214024603E8013C00041E0000000023
:1006FE00012300010E00011B000131000113000156
:10070E003B00014800012800043E00000000042DBB
:10071E0000000000043300000000040F0000000081
:10072E00012200044200000000011900011A000419
:10073E003700000000012900012A00021C000004FD
:10074E001400000000010800010900040A00000066
:01075E00009A
:0D0B9400E532FD7C007E047FB012040A22D1
:0B0BBB00120B947C007D031203F82253
:040C1300120B94220A
:070BF600758CFB758AAF222C
:100B74005389F0438901438E80120BF6D2A9D28C9B
:010B8400224E
:03000B000205CD1E
:1005CD00C0E0C0D075D000C004C005C006C0071281
:1005DD000BF60518E518C3940A401C751800AF27D3
:1005ED00AE26AD25AC24EF2401F527E43EF526E437
:1005FD003DF525E43CF524E53D6039D3E547940010
:10060D00E5469400402EE54725E0FFE54633FEEF35
:10061D00252CF52CEE352BF52BC3E52C9410E52B65
:10062D009427401874F0252CF52C74D8352BF52B08
:10063D00B2B28008752B00752C00C2B2D007D0065F
:09064D00D005D004D0D0D0E03279
:0B0ACE00AD1A120BE4120B5075190159
:0C0AD900C2AFAF27AE26AD25AC24D2AFD3
:010AE50022EE
:040965008F828E836C
:10096900120AD98F4D8E4C8D4B8C4A120AD9C3EF7E
:10097900954DFFEE954CFEED954BFDEC954AFCAB84
:0C09890082AA83E4F9F8D312045F50DF67
:01099500223F
:0A0BC600E4F53DF52BF52CC2B22238
:100B5000E54745467003020BC6E4F52BF52C753DC1
:020B6000012270
:050C0400D2B3020B5009
:050C0900C2B3020BC69E
:030C1700C2B32243
:0D0BA100E4F5C7F5C5F5C675C380F5C4229F
:100AE60075C78275C501EFF5C48EC375C65A75C63E
:070AF600A500AFC2120BA125
:010AFD0022D6
:100AFE0075C78275C502EFF5C48EC38DC275C65A11
:070B0E0075C6A500020BA152
:100B150075C78275C503EFF5C48EC375C65A75C60C
:050B2500A500020BA178
:050C0E00EF649FFF22CE
:08000300EF64C66D645AFF2290
:080BEE007C007D6412040A2260
:0A0BD0007E007C007D641203F82211
:10065600E4FFFE120AE68F497F01120AE68F4A7FFF
:1006660002120AE68F4B7F03120AE6AE07E54964DB
:10067600C6703AE54AC394054033E54AD3942350FD
:100686002CE54B94195026AD4BAF4A120003EFB53B
:10069600061B854A32AF4B120BD08E468F47E54775
:1006A600454670337546037547E8020B85E549B440
:1006B600C51CE54AC394054015E54AD39423500E5C
:1006C600AF4A120C0EEFB54B05854A3280037532E0
:0706D600147546037547E8A7
:0106DD0022FA
:0F0B8500753C01120AD98F218E208D1F8C1E22E4
:100A2700AF47AE46120BEEAC07E4FFFE120B157D87
:100A3700C6120AFEAD320F120AFEAD040F120AFEED
:0C0A4700AF32120003AD077F03020AFE6D
:10093100E53C602FE51B702BE5317027120AD9C306
:10094100EF9521FFEE9520FEED951FFDEC951EFC28
:10095100E47B587A02F9F8D312045F5006120A2791
:04096100E4F53C225B
:100A980043B20C53B1F353B2FC53B1FC43B003530C
:0D0AA800CACF53C9CF43C830C2B3C2B22277
:1001E700120AD98F4C8E4B8D4A8C4920CD047F0142
:1001F70080027F008F4D20CC047F0180027F008F1B
:100207004E20B0047F0180027F008F4F20B1047F12
:100217000180027F008F50E54D6513600F854D13F8
:10022700854C41854B40854A3F85493EC3E54C9502
:1002370041FFE54B9540FEE54A953FFDE549953E73
:10024700FCE47B14FAF9F8D312045F5003854D23BD
:10025700E54E653B600F854E3B854C30854B2F85C2
:100267004A2E85492DC3E54C9530FFE54B952FFE6A
:10027700E54A952EFDE549952DFCE47B14FAF9F83E
:10028700D312045F5003854E0EE54F6548600F8516
:100297004F48854C36854B35854A34854933C3E508
:1002A7004C9536FFE54B9535FEE54A9534FDE54916
:1002B7009533FCE47B14FAF9F8D312045F500385F5
:1002C7004F1BE5506528600F855028854C12854BDC
:1002D70011854A1085490FC3E54C9512FFE54B95EB
:1002E70011FEE54A9510FDE549950FFCE47B14FAEC
:0B02F700F9F8D312045F50038550316A
:0103020022D8
:100B6200120B50120B94120965120BC6120C1302CF
:020B7200096513
:1008BA00C2B37F2C7E01120965E4F549120B620569
:1008CA0049E549C3940440F4120B94EF25E0FFEE86
:1008DA0033FE120965E4F549120B620549E549C37D
:1008EA00940240F4120BC6C2B37F2C7E0102096542
:100B2A00120C09E4F52AF51CF51DF517F516F5154D
:030B3A00F514228D
:10049D00E51D451C70028016120AD98F518E508DA4
:1004AD004F8C4E851D82851C83E493FF7003020BD8
:1004BD002A051DE51D7002051CBF2E0B120C0475BF
:1004CD002A01120B94800CBF2D1B120C04752A01EE
:1004DD00120BBBEF2551F517EE3550F516E4354FE0
:1004ED00F515E4804ABF2022120C09752A03120B60
:1004FD00947C007D02120470EF2551F517EE3550F6
:10050D00F516ED354FF515EC8025EF642F7089123A
:10051D000C09752A04120B947C007D06120470EFF1
:10052D002551F517EE3550F516ED354FF515EC3522
:03053D004EF51464
:010540002298
:100B3D00120C09E4F522F519F5298E1C8F1DF52AE5
:030B4D0002049D02
:1007DD00120AD98F4C8E4B8D4A8C49E52A606AE5F9
:1007ED00237063E50E6002805DE52A24FE24FD5032
:1007FD003A24047051C3E54C9517FFE54B9516FE51
:10080D00E54A9515FDE5499514FC33403C120C095C
:10081D00752A02120C13EF254CF517EE354BF51614
:10082D00E4354AF515E43549F51422C3E54C951721
:10083D00FFE54B9516FEE54A9515FDE5499514FC2A
:09084D0033400602049D120B2A3F
:01085600227F
:1009C700120C04752201120AD9C004C005C006C062
:1009D70007120B94E4FCFDD003D002D001D000EB4A
:1009E7002FF545EA3EF544ED39F543EC38F542225B
:1009F700120C04752203120AD9C004C005C006C030
:100A070007120BBBE4FCFDD003D002D001D000EBF2
:100A17002FF545EA3EF544ED39F543EC38F542222A
:070BFD00120C09E4F52222AD
:060BAE00750901120B2A7B
:070BB400120C17E4F52222E8
:10030300120AD98F4C8E4B8D4A8C49E52A60030221
:1003130003F7E5197008E51B7004E5316003020B70
:10032300B4E522146024146044146065147003025D
:1003330003CA240460030203F4E50E60030203E628
:10034300E52370030203F70203EDC3E54C9545FF74
:10035300E54B9544FEE54A9543FDE5499542FC335B
:1003630050030203F7120C097522028042C3E54CC5
:100373009545FFE54B9544FEE54A9543FDE54995D3
:1003830042FC33406FE50E60028058E523605E80D7
:1003930059C3E54C9545FFE54B9544FEE54A954326
:1003A300FDE5499542FC33404B120C0975220412BA
:1003B3000C13EF254CF545EE354BF544E4354AF582
:1003C30043E43549F54222C3E54C9545FFE54B959A
:1003D30044FEE54A9543FDE5499542FC334015E566
:1003E3000E60030209F7E52360030209C7E4F5225F
:0403F30022120BFDCA
:0103F70022E3
:100AB500E5316007E51B70037F0122E51B6007E553
:090AC5003170037FFF227F002243
:0A0BDA00E50E60037F01227F002278
:100A5300D3EF64809480400AE53294235017053223
:100A63008010C3EF64809480500BE53294054005F9
:060A73001532120B852272
:10085700D3EF648094804028E54794C4E546940923
:10086700505074642547F547E43546F546D3E547C8
:1008770094C4E546940940377546097547C4802FE7
:10088700C3EF64809480502AE5479400E5469400BE
:100897004020E5479464E5469400400E749C254744
:1008A700F54774FF3546F5468005E4F546F54712EA
:0308B7000B85228C
:0A0BE400BD0103020857120A532254
:1008FA00AE07C2B38E29120BDA8F1AAF06120ACECE
:10090A00C004C005C006C007120B94E4FCFDD00366
:10091A00D002D001D000EB2FF53AEA3EF539ED3995
:07092A00F538EC38F5372227
:10099600C2B38F29E4F51A120ACEC004C005C006F8
:1009A600C007120B94E4FCFDD003D002D001D000A6
:1009B600EB2FF53AEA3EF539ED39F538EC38F537EF
:0109C600220E
:10000E00120AD98F4C8E4B8D4A8C49E50E606FE4E7
:10001E00F508F509E51914601D1460382402705BAB
:10002E00120AB58F4DE54D70030201E6120B2A122E
:10003E000BB4AF4D8042C3E54C953AFFE54B953975
:10004E00FEE54A9538FDE5499537FC33500302012C
:10005E00E60201A0C3E54C953AFFE54B9539FEE566
:10006E004A9538FDE5499537FC3350030201E612F7
:10007E000AB58F4DE54D60030208FA0201DCE51B5F
:10008E006007E53160030201E6E5087022E51B60BA
:10009E0005750801800AE53170030201E675080254
:1000AE00E4F509854C0D854B0C854A0B85490AE50F
:1000BE000864017058E51B7023E5097012E52A707B
:1000CE0075E51970717E077F60120B3D0201741287
:1000DE000BC6C2B3E4F529F519020174E5097028BF
:1000EE00C3E54C950DFFE54B950CFEE54A950BFDD2
:1000FE00E549950AFCE47BE87A03F9F8D312045F2C
:10010E0040030201E6120BAE754DFF805FE50864F9
:10011E00027053E5317021E5097011E52A7017E57B
:10012E001970137E077FBA120B3D800A120BC6C2DE
:10013E00B3E4F529F519802EE5097025C3E54C9534
:10014E000DFFE54B950CFEE54A950BFDE549950A2D
:10015E00FCE47BE87A03F9F8D312045F507A120BB1
:10016E00AE754D018006E4F508F50922E519146017
:10017E000914603E24027056804FC3E54C953AFF39
:10018E00E54B9539FEE54A9538FDE5499537FC3343
:10019E004046120BC6C2B3751902120C13EF254C52
:1001AE00F53AEE354BF539E4354AF538E43549F58F
:1001BE003722C3E54C953AE54B9539FEE54A95381D
:1001CE00FDE5499537FC33400FAF4D020996120BF2
:0801DE00C6C2B3E4F529F519CE
:0101E60022F6
:100A7900120A98120B74D2AF1206561208BA120152
:0F0A8900E712000E1207DD12030312093180EF8E
:10054D00020A79E493A3F8E493A34003F68001F241
:10055D0008DFF48029E493A3F85407240CC8C333AF
:10056D00C4540F4420C8834004F456800146F6DF7E
:10057D00E4800B01020408102040809006DEE47E2A
:10058D00019360BCA3FF543F30E509541FFEE49373
:10059D00A360010ECF54C025E060A840B8E493A33A
:1005AD00FAE493A3F8E493A3C8C582C8CAC583CA65
:1005BD00F0A3C8C582C8CAC583CADFE9DEE780BE1D
:01075F000099
:1003F800EF8DF0A4A8F0CF8CF0A428CE8DF0A42E19
:02040800FE22D2
:10040A00BC000BBE0029EF8DF084FFADF022E4CCD6
:10041A00F875F008EF2FFFEE33FEEC33FCEE9DEC9F
:10042A00984005FCEE9DFE0FD5F0E9E4CEFD22EDE5
:10043A00F8F5F0EE8420D21CFEADF075F008EF2F2F
:10044A00FFED33FD4007985006D5F0F222C398FD20
:05045A000FD5F0EA22BD
:10045F00EB9FF5F0EA9E42F0E99D42F0E89C45F0F3
:01046F00226A
:10047000EC8EF0A4CCC5F0CCCDF8EFA4CEC5F02D19
:10048000FDE43CFCE8A42EC8C5F03DFDE43CFCEFD7
:0D049000A4FFE5F028FEE43DFDE43CFC2265
:00000001FF
