:030000000207DD17
:0C07DD00787FE4F6D8FD758160020824E6
:1008F2002D2E2D2E202D2D2E2D2F2D2E2D2E202D39
:100902002D2E2D2F2D2E2E202E2F2E202E2D2D2032
:100912002D2E2E2E2E202D2D202E2D2E2E2F2E2022
:100922002E2D2D202D2E2E2E2E202D2D202E2D2E15
:100932002E2F2E202E2D2D202D2E2E2E2E202D2D03
:10094200202E2D2E2E2F2D2E2D002D202D2E202D22
:100952002E2E2D2F2D2D2E2D202E2E2E202D2D2DD7
:100962002F2D2D2E2E2E202E2E2E2D2D2F2E2E2EB5
:05097200202D2E2D00D8
:10074600042500000000013B00011700022E0000F6
:10075600013114024903E8014400013A00041F0074
:10076600000000012B00012C00011D00011E0004E9
:100776004B00000000045000000000043C00000094
:1007860000044000000000012400010E00011A00D0
:10079600013000014F00012900043200000000046E
:1007A6000F000000000123000445000000000118AE
:1007B60000011900043600000000012A00012D0086
:1007C600021B0000041300000000010800010900DC
:0607D600040A000000000F
:0D0D9600E531FD7C007E047FB012060F22C7
:0B0DBD00120D967C007D031205FD2244
:040E1E00120D9622F9
:070E0100758CFB758AAF221E
:100D76005389F0438901438E80120E01D2A9D28C89
:010D8600224A
:03000B000208697F
:10086900C0E0C0D075D000C004C005C006C00712E2
:100879000E010517E517C3940A401C751700AF2828
:10088900AE27AD26AC25EF2401F528E43EF527E493
:100899003DF526E43CF525E53B6039D3E54A94006E
:1008A900E5499400402EE54A25E0FFE54933FEEF8E
:1008B900252FF52FEE352EF52EC3E52F9410E52EB5
:1008C9009427401874F0252FF52F74D8352EF52E5E
:1008D900B2B28008752E00752F00C2B2D007D006BB
:0908E900D005D004D0D0D0E032DB
:0B0C9500AD19120DE6120D2E751801AE
:0C0CA000C2AFAF28AE27AD26AC25D2AF06
:010CAC002225
:040B58008F828E8377
:100B5C00120CA08F5C8E5B8D5A8C59120CA0C3EFBB
:100B6C00955CFFEE955BFEED955AFDEC9559FCAB53
:0C0B7C0082AA83E4F9F8D312066450DF6B
:010B8800224A
:0A0DC800E4F53BF52EF52FC2B22230
:100D2E00E54A45497003020DC8E4F52EF52F753BD3
:020D3E00012290
:050E0F00D2B3020D2E1C
:050E1400C2B3020DC88D
:030E2200C2B32236
:0D0DA300E4F5C7F5C5F5C675C380F5C4229B
:100CAD0075C78275C501EFF5C48EC375C65A75C675
:070CBD00A500AFC2120DA358
:010CC400220D
:100CC50075C78275C502EFF5C48EC38DC275C65A48
:070CD50075C6A500020DA386
:100CF30075C78275C503EFF5C48EC375C65A75C62D
:050D0300A500020DA394
:050E1900EF649FFF22C1
:08000300EF64C66D645AFF2290
:090DF000EF64C76D6B645AFF2229
:080DF9007C007D6412060F224C
:0A0DD2007E007C007D641205FD2206
:10051200E4FFFE120CAD8F547F01120CAD8F557F9C
:1005220002120CAD8F567F03120CAD8F577F04124F
:100532000CADAE07E55464C77047E555C39405405A
:1005420040E555D394235039E55694195033E55775
:100552009401502DAB57AD56AF55120DF0EFB506C5
:1005620020855531AF56120DD28E498F4A85574498
:10057200E54A454960030205FC754903754AE8806E
:100582006AE55464C6703CE555C394054035E555AB
:10059200D39423502EE55694195028AD56AF5512D8
:1005A2000003EFB5571D855531AF56120DD28E4956
:1005B2008F4AE4F544E54A45497006754903754A90
:1005C200E88028E554B4C526E555C39405401FE5E7
:1005D20055D394235018AF55120E19EFB5560F8507
:1005E2005531754903754AE8E4F544020D877531C2
:0A05F20014754903754AE8E4F54466
:0105FC0022DC
:0F0D8700753A01120CA08F228E218D208C1F2215
:100B2200AF4AAE49120DF9AC07E4FFFE120CF37D99
:100B3200C7120CC5AD310F120CC5AD040F120CC596
:100B4200AD440F120CC5AD04AB44AF31120DF0AD84
:060B5200077F04020CC540
:100A5400E53A6052E523704EE52D704AE51870467C
:100A6400E51A7042E530703EE524703AE50E7036C2
:100A7400E52B7032E52C702E20B32BE53B7027124A
:100A84000CA0C3EF9522FFEE9521FEED9520FDEC21
:100A9400951FFCE47B587A02F9F8D31206645006D9
:070AA400120B22E4F53A22D7
:100C5F0043B20C53B1F353B2FC53B1FC43B0035343
:0D0C6F00CACF53C9CF43C830C2B3C2B222AE
:10029300120CA08F5C8E5B8D5A8C5920CC047F018D
:1002A30080027F008F5D20CD047F0180027F008F5D
:1002B3005E20B0047F0180027F008F5F20B1047F46
:1002C3000180027F008F60E55D651D600F855D1D08
:1002D300855C4E855B4D855A4C85594BC3E55C95D2
:1002E3004EFFE55B954DFEE55A954CFDE559954B63
:1002F300FCE47B14FAF9F8D31206645003855D2BF2
:10030300E55E651E600F855E1E855C53855B5285C9
:100313005A51855950C3E55C9553FFE55B9552FEF1
:10032300E55A9551FDE5599550FCE47B14FAF9F82B
:10033300D31206645003855E2CE55F654F600F851D
:100343005F4F855C35855B34855A33855932C3E508
:100353005C9535FFE55B9534FEE55A9533FDE5592C
:100363009532FCE47B14FAF9F8D312066450038542
:100373005F1AE5606529600F856029855C12855BDE
:1003830011855A1085590FC3E55C9512FFE55B95FE
:1003930011FEE55A9510FDE559950FFCE47B14FA1F
:1003A300F9F8D31206645003856030E52B6021E42D
:1003B300FFFEFDFCAB3FAA3EA93DA83CC312066469
:1003C3007017855C3F855B3E855A3D85593C8009A6
:1003D300E4F53FF53EF53DF53CE52C6021E4FFFEF9
:1003E300FDFCAB43AA42A941A840C312066470179F
:1003F300855C43855B42855A418559408009E4F514
:1004030043F542F541F540E544B40107852C2485C5
:090413002B0E22852B24852C0EF2
:01041C0022BD
:100D4000120D2E120D96120B58120DC8120E1E0205
:020D50000B583E
:100AAB00C2B37F2C7E01120B58E4F554120D400596
:100ABB0054E554C3940440F4120D96EF25E0FFEE79
:100ACB0033FE120B58E4F554120D400554E554C394
:100ADB00940240F4120DC8C2B37F2C7E01020B5856
:100D5200C2B3120D2E7FE87E03120B58120DC8C2C9
:020D6200B322BA
:100CDC00EFD394015010E5446F60088F44120B223F
:070CEC00E4F53A120D52225B
:100D6400E52B7008E51A7004E530600512029380E3
:020D7400EF226C
:100D0800120E14E4F52DF51BF51CF516F515F51462
:030D1800F51322AE
:1006A200E51C451B70028016120CA08F5C8E5B8DC0
:1006B2005A8C59851C82851B83E493FF7003020DBB
:1006C20008051CE51C7002051BBF2E0B120E0F75D0
:1006D2002D01120D96800CBF2D1B120E0F752D01D0
:1006E200120DBDEF255CF516EE355BF515E4355AB6
:1006F200F514E4804ABF2022120E14752D03120D48
:10070200967C007D02120675EF255CF516EE355BD0
:10071200F515ED355AF514EC8025EF642F7089122A
:100722000E14752D04120D967C007D06120675EFCF
:10073200255CF516EE355BF515ED355AF514EC35FD
:0307420059F51353
:010745002291
:100D1B00120E14E4F523F518F52A8E1B8F1CF52DF6
:030D2B000206A21B
:10097700120CA08F578E568D558C54E52D606AE565
:10098700247063E50E6002805DE52D24FE24FD5092
:100997003A24047051C3E5579516FFE5569515FEA1
:1009A700E5559514FDE5549513FC33403C120E14A0
:1009B700752D02120E1EEF2557F516EE3556F51555
:1009C700E43555F514E43554F51322C3E557951668
:1009D700FFE5569515FEE5559514FDE5549513FC71
:0909E7003340060206A2120D08BD
:0109F00022E4
:100BBA00120E0F752301120CA0C004C005C006C096
:100BCA0007120D96E4FCFDD003D002D001D000EB51
:100BDA002FF548EA3EF547ED39F546EC38F545225A
:100BEA00120E0F752303120CA0C004C005C006C064
:100BFA0007120DBDE4FCFDD003D002D001D000EBFA
:100C0A002FF548EA3EF547ED39F546EC38F5452229
:070E0800120E14E4F5232291
:060DB000750901120D0897
:070DB600120E22E4F52322D6
:10041D00120CA08F578E568D558C54E52D6003020E
:10042D000511E5187008E51A7004E5306003020D3A
:10043D00B6E523146024146044146065147003023F
:10044D0004E42404600302050EE50E6003020500BA
:10045D00E5247003020511020507C3E5579548FF12
:10046D00E5569547FEE5559546FDE5549545FC3316
:10047D005003020511120E147523028042C3E55775
:10048D009548FFE5569547FEE5559546FDE554958E
:10049D0045FC33406FE50E60028058E524605E80B8
:1004AD0059C3E5579548FFE5569547FEE5559546E1
:1004BD00FDE5549545FC33404B120E147523041283
:1004CD000E1EEF2557F548EE3556F547E43555F533
:1004DD0046E43554F54522C3E5579548FFE5569555
:1004ED0047FEE5559546FDE5549545FC334015E52C
:1004FD000E6003020BEAE5246003020BBAE4F52358
:04050D0022120E08A0
:0105110022C7
:100C7C00E5306007E51A70037F0122E51A6007E58D
:090C8C003070037FFF227F00227B
:0A0DDC00E52C60037F01227F002256
:100C1A00D3EF64809480400AE5319423501705315C
:100C2A008010C3EF64809480500BE5319405400531
:060C3A001531120D8722A6
:1009F100D3EF648094804028E54A94C4E549940982
:100A010050507464254AF54AE43549F549D3E54A1D
:100A110094C4E54994094037754909754AC4802F42
:100A2100C3EF64809480502AE54A9400E54994001C
:100A31004020E54A9464E5499400400E749C254A9F
:100A4100F54A74FF3549F5498005E4F549F54A123F
:030A51000D8722EC
:0A0DE600BD01030209F1120C1A22EC
:100AEB00AE07C2B38E2A120DDC8F19AF06120C950E
:100AFB00C004C005C006C007120D96E4FCFDD00370
:100B0B00D002D001D000EB2FF539EA3EF538ED39A4
:070B1B00F537EC38F5362236
:100B8900C2B38F2AE4F519120C95C004C005C0063A
:100B9900C007120D96E4FCFDD003D002D001D000AD
:100BA900EB2FF539EA3EF538ED39F537EC38F536FE
:010BB9002219
:10000E00120CA08F578E568D558C54E52B606DE4D7
:10001E00FFFEFDFCAB3FAA3EA93DA83CC312066401
:10002E00605AC3E557953FFFE556953EFEE555955B
:10003E003DFDE554953CFCE47B907A01F9F8D31232
:10004E0006645038E51A7004E5306030120D08125F
:10005E000DB6E4F518F52AF508F509E51A6008E578
:10006E003070047F01800FE5307003020292E51AB2
:10007E006003020292FF120CDC020D64E52C700389
:10008E00020138E4FFFEFDFCAB43AA42A941A840A1
:10009E00C31206647003020138C3E5579543FFE5AA
:1000AE00569542FEE5559541FDE5549540FCE47BA1
:1000BE00907A01F9F8D3120664506FE4F508F50949
:1000CE00E51814601D1460382402705B120C7C8FCE
:1000DE0058E5587003020292120D08120DB6AF5871
:1000EE008042C3E5579539FFE5569538FEE555959F
:1000FE0037FDE5549536FC33500302029202024C52
:10010E00C3E5579539FFE5569538FEE5559537FD0C
:10011E00E5549536FC335003020292120C7C8F5834
:10012E00E5586003020AEB020288E51A6007E53023
:10013E006003020292E5087022E51A600575080157
:10014E00800AE5307003020292750802E4F5098513
:10015E00570D85560C85550B85540AE508640170BC
:10016E0058E51A7023E5097012E52D7075E51870C3
:10017E00717E087FF2120D1B020220120DC8C2B34F
:10018E00E4F52AF518020220E5097028C3E5579513
:10019E000DFFE556950CFEE555950BFDE554950ABC
:1001AE00FCE47BE87A03F9F8D312066440030202FA
:1001BE0092120DB07558FF805FE50864027053E52A
:1001CE00307021E5097011E52D7017E51870137E5A
:1001DE00097F4C120D1B800A120DC8C2B3E4F52A1A
:1001EE00F518802EE5097025C3E557950DFFE556E8
:1001FE00950CFEE555950BFDE554950AFCE47BE860
:10020E007A03F9F8D3120664507A120DB0755801BC
:10021E008006E4F508F50922E51814600914603E1D
:10022E0024027056804FC3E5579539FFE556953831
:10023E00FEE5559537FDE5549536FC334046120DD7
:10024E00C8C2B3751802120E1EEF2557F539EE35DA
:10025E0056F538E43555F537E43554F53622C3E511
:10026E00579539E5569538FEE5559537FDE5549584
:10027E0036FC33400FAF58020B89120DC8C2B3E4DF
:04028E00F52AF51840
:010292002249
:100C4000120C5F120D76D2AF120512120AAB12020D
:0F0C50009312000E12097712041D120A5480EF3E
:1007E900020C40E493A3F8E493A34003F68001F2DA
:1007F90008DFF48029E493A3F85407240CC8C33311
:10080900C4540F4420C8834004F456800146F6DFDF
:10081900E4800B0102040810204080900746E47E22
:10082900019360BCA3FF543F30E509541FFEE493D4
:10083900A360010ECF54C025E060A840B8E493A39B
:10084900FAE493A3F8E493A3C8C582C8CAC583CAC6
:10085900F0A3C8C582C8CAC583CADFE9DEE780BE7E
:0107DC00001C
:1005FD00EF8DF0A4A8F0CF8CF0A428CE8DF0A42E12
:02060D00FE22CB
:10060F00BC000BBE0029EF8DF084FFADF022E4CCCF
:10061F00F875F008EF2FFFEE33FEEC33FCEE9DEC98
:10062F00984005FCEE9DFE0FD5F0E9E4CEFD22EDDE
:10063F00F8F5F0EE8420D21CFEADF075F008EF2F28
:10064F00FFED33FD4007985006D5F0F222C398FD19
:05065F000FD5F0EA22B6
:10066400EB9FF5F0EA9E42F0E99D42F0E89C45F0EC
:010674002263
:10067500EC8EF0A4CCC5F0CCCDF8EFA4CEC5F02D12
:10068500FDE43CFCE8A42EC8C5F03DFDE43CFCEFD0
:0D069500A4FFE5F028FEE43DFDE43CFC225E
:00000001FF
